:100000000C942E000C9440000C9440000C94400082
:100010000C9440000C945F000C9440000C94400041
:100020000C9440000C9440000C9440000C94400050
:100030000C9440000C9440000C9440000C94400040
:100040000C9440000C9440000C9440000C94400030
:100050000C9440000C9440000C947D0011241FBEB1
:10006000CFEFD4E0DEBFCDBF21E0A0E0B1E001C022
:100070001D92A130B207E1F70E9488000C94CD00D8
:100080000C940000809170008E7F8093700088E057
:100090008093B6001092B2008091B0008760809388
:1000A000B0008091B6008570E1F78FEF87BB80913B
:1000B00070008160809370001092000108951F927B
:1000C0000F920FB60F9211248F93809100018F5FD2
:1000D000809300018F910F900FBE0F901F90189585
:1000E00085E98093E5008EE08093E70082E08093CD
:1000F000E60080EC8093E40008951F920F920FB603
:100100000F92112400000F900FBE0F901F901895B2
:1001100087EE93E00197F1F700C0000080E880933C
:10012000610091E09093610080BF8FE08093640054
:1001300087EF80937E0088E081BB80E183BB14BAA7
:100140009FE7E8E3F1E09150E040F040E1F700C0C4
:10015000000084BB0E9442000E94700078942FEF40
:100160002093EC0090E89093ED008FE78093EE00F1
:100170002093F1009093F2008093F30097E080E1E8
:1001800093BF78948895000014BAE7EEF3E03197B6
:0E019000F1F700C0000084BBF3CFF894FFCF5E
:00000001FF
