:100000000C942E000C9440000C9440000C94400082
:100010000C9440000C945F000C9440000C94400041
:100020000C9440000C9440000C9440000C94400050
:100030000C9440000C9440000C9440000C94400040
:100040000C9440000C9440000C9440000C94400030
:100050000C9440000C9440000C94FF0011241FBE2F
:10006000CFEFD4E0DEBFCDBF21E0A0E0B1E001C022
:100070001D92A130B207E1F70E940A010C945C01C5
:100080000C940000809170008E7F8093700088E057
:100090008093B6001092B2008091B000856080938A
:1000A000B0008091B6008570E1F78FEF87BB80913B
:1000B00070008160809370001092000108951F927B
:1000C0000F920FB60F9211248F93809100018F5FD2
:1000D000809300018F910F900FBE0F901F90189585
:1000E0001092E400E4E6F0E080818061808308956E
:1000F000E4E6F0E080818F7E808380EC8093E400F2
:100100000895E4E6F0E080818F7E808385E9809326
:10011000E50080E18093E70082E08093E6000E94A2
:1001200078002FEF2093EC0090E89093ED008FE79C
:100130008093EE002093F1009093F2008093F300FF
:1001400008951092EC001092ED001092EE001092C3
:10015000F1001092F2001092F300282F27708830DF
:1001600050F481E090E0022E01C0880F0A94EAF773
:100170008093EC000895883069F481E090E0022ECD
:1001800001C0880F0A94EAF787958827879580939E
:10019000ED000895803158F4215081E090E0022E66
:1001A00001C0880F0A94EAF78093EE000895883121
:1001B00050F481E090E0022E01C0880F0A94EAF723
:1001C0008093F1000895883169F481E090E0022E77
:1001D00001C0880F0A94EAF787958827879580934E
:1001E000F2000895803250F4215081E090E0022E18
:1001F00001C0880F0A94EAF78093F30008951F92D4
:100200000F920FB60F92112400000F900FBE0F90A7
:100210001F90189589EF90E00197F1F700C000005A
:1002200080E880BF8EE18093640080E183BBA49866
:1002300087EA91E60197F1F700C00000A49A88E0F0
:1002400081BB0E9442000E9481000E94700078944D
:10025000C0E0D7E01AE0D3BF789488950000809181
:100260000001612F0E945001911101C0A49889EFF3
:1002700090E00197F1F700C00000A49A7B9909C0B3
:10028000CC2321F00E947000C0E003C00E947800DF
:10029000C1E0809100018F7190E00E94A100DBCF4E
:1002A000991B79E004C0991F961708F0961B881FC8
:0C02B0007A95C9F780950895F894FFCF67
:00000001FF
