:100000000C942E000C9440000C9440000C94400082
:100010000C9440000C945F000C9440000C94400041
:100020000C9440000C9440000C9440000C94400050
:100030000C9440000C9440000C9440000C94400040
:100040000C9440000C9440000C9440000C94400030
:100050000C9440000C9440000C94990011241FBE95
:10006000CFEFD4E0DEBFCDBF21E0A0E0B1E001C022
:100070001D92A130B207E1F70E94A4000C94F10098
:100080000C940000809170008E7F8093700088E057
:100090008093B6001092B2008091B000856080938A
:1000A000B0008091B6008570E1F78FEF87BB80913B
:1000B00070008160809370001092000108951F927B
:1000C0000F920FB60F9211248F93809100018F5FD2
:1000D000809300018F910F900FBE0F901F90189585
:1000E000E4E6F0E080818F7E808385E98093E500FF
:1000F0008EE08093E70082E08093E60080EC8093BE
:10010000E4002FEF2093EC0090E89093ED008FE750
:100110008093EE002093F1009093F2008093F3001F
:1001200008951092E400E4E6F0E08081806180832D
:1001300008951F920F920FB60F92112400000F9096
:100140000FBE0F901F90189587EE93E00197F1F77F
:1001500000C0000080E88093610091E0909361000E
:1001600080BF8EE18093640080E183BBA4989FE709
:1001700028E381E0915020408040E1F700C000007A
:10018000A49A88E081BB0E9442007894C7E0DAE03C
:10019000C3BF789488950000809100016D2F0E9464
:1001A000E500911101C0A49887EE93E00197F1F763
:1001B00000C00000A49A7B9B04C0A49A0E949100F6
:1001C000E7CFA4980E947000E3CF991B79E004C0A8
:1001D000991F961708F0961B881F7A95C9F7809586
:0601E0000895F894FFCF22
:00000001FF
